{
  "contractName": "Roulette",
  "abi": [
    {
      "constant": true,
      "inputs": [],
      "name": "pool",
      "outputs": [
        {
          "name": "",
          "type": "uint256"
        }
      ],
      "payable": false,
      "stateMutability": "view",
      "type": "function"
    },
    {
      "constant": true,
      "inputs": [],
      "name": "numberOfBets",
      "outputs": [
        {
          "name": "",
          "type": "uint256"
        }
      ],
      "payable": false,
      "stateMutability": "view",
      "type": "function"
    },
    {
      "constant": true,
      "inputs": [
        {
          "name": "",
          "type": "address"
        }
      ],
      "name": "playerInfo",
      "outputs": [
        {
          "name": "amountBet",
          "type": "uint256"
        },
        {
          "name": "numberSelected",
          "type": "uint256"
        }
      ],
      "payable": false,
      "stateMutability": "view",
      "type": "function"
    },
    {
      "constant": true,
      "inputs": [],
      "name": "maxPlayers",
      "outputs": [
        {
          "name": "",
          "type": "uint256"
        }
      ],
      "payable": false,
      "stateMutability": "view",
      "type": "function"
    },
    {
      "constant": true,
      "inputs": [],
      "name": "contractOwner",
      "outputs": [
        {
          "name": "",
          "type": "address"
        }
      ],
      "payable": false,
      "stateMutability": "view",
      "type": "function"
    },
    {
      "constant": true,
      "inputs": [
        {
          "name": "",
          "type": "uint256"
        }
      ],
      "name": "players",
      "outputs": [
        {
          "name": "",
          "type": "address"
        }
      ],
      "payable": false,
      "stateMutability": "view",
      "type": "function"
    },
    {
      "inputs": [],
      "payable": false,
      "stateMutability": "nonpayable",
      "type": "constructor"
    },
    {
      "payable": true,
      "stateMutability": "payable",
      "type": "fallback"
    },
    {
      "constant": false,
      "inputs": [],
      "name": "kill",
      "outputs": [],
      "payable": false,
      "stateMutability": "nonpayable",
      "type": "function"
    },
    {
      "constant": true,
      "inputs": [
        {
          "name": "_playerAddress",
          "type": "address"
        }
      ],
      "name": "checkPlayerExists",
      "outputs": [
        {
          "name": "",
          "type": "bool"
        }
      ],
      "payable": false,
      "stateMutability": "view",
      "type": "function"
    },
    {
      "constant": false,
      "inputs": [
        {
          "name": "_numberSelected",
          "type": "uint256"
        }
      ],
      "name": "bet",
      "outputs": [],
      "payable": true,
      "stateMutability": "payable",
      "type": "function"
    }
  ],
  "bytecode": "0x6080604052600560035534801561001557600080fd5b50336000806101000a81548173ffffffffffffffffffffffffffffffffffffffff021916908373ffffffffffffffffffffffffffffffffffffffff16021790555061096c806100656000396000f3fe608060405260043610610099576000357c0100000000000000000000000000000000000000000000000000000000900463ffffffff16806316f0115b1461009b5780632ca8c6d3146100c65780634081d916146100f157806341c0e1b51461015a5780634b114691146101715780634c2412a2146101dd5780637365870b14610208578063ce606ee014610236578063f71d96cb1461028d575b005b3480156100a757600080fd5b506100b0610308565b6040518082815260200191505060405180910390f35b3480156100d257600080fd5b506100db61030e565b6040518082815260200191505060405180910390f35b3480156100fd57600080fd5b506101406004803603602081101561011457600080fd5b81019080803573ffffffffffffffffffffffffffffffffffffffff169060200190929190505050610314565b604051808215151515815260200191505060405180910390f35b34801561016657600080fd5b5061016f6103b8565b005b34801561017d57600080fd5b506101c06004803603602081101561019457600080fd5b81019080803573ffffffffffffffffffffffffffffffffffffffff169060200190929190505050610449565b604051808381526020018281526020019250505060405180910390f35b3480156101e957600080fd5b506101f261046d565b6040518082815260200191505060405180910390f35b6102346004803603602081101561021e57600080fd5b8101908080359060200190929190505050610473565b005b34801561024257600080fd5b5061024b6105d4565b604051808273ffffffffffffffffffffffffffffffffffffffff1673ffffffffffffffffffffffffffffffffffffffff16815260200191505060405180910390f35b34801561029957600080fd5b506102c6600480360360208110156102b057600080fd5b81019080803590602001909291905050506105f9565b604051808273ffffffffffffffffffffffffffffffffffffffff1673ffffffffffffffffffffffffffffffffffffffff16815260200191505060405180910390f35b60015481565b60025481565b600080600090505b6004805490508110156103ad578273ffffffffffffffffffffffffffffffffffffffff1660048281548110151561034f57fe5b9060005260206000200160009054906101000a900473ffffffffffffffffffffffffffffffffffffffff1673ffffffffffffffffffffffffffffffffffffffff1614156103a05760019150506103b3565b808060010191505061031c565b50600090505b919050565b6000809054906101000a900473ffffffffffffffffffffffffffffffffffffffff1673ffffffffffffffffffffffffffffffffffffffff163373ffffffffffffffffffffffffffffffffffffffff161415610447576000809054906101000a900473ffffffffffffffffffffffffffffffffffffffff1673ffffffffffffffffffffffffffffffffffffffff16ff5b565b60056020528060005260406000206000915090508060000154908060010154905082565b60035481565b61047c33610314565b15151561048857600080fd5b6001811015801561049a5750600a8111155b15156104a557600080fd5b34600560003373ffffffffffffffffffffffffffffffffffffffff1673ffffffffffffffffffffffffffffffffffffffff1681526020019081526020016000206000018190555080600560003373ffffffffffffffffffffffffffffffffffffffff1673ffffffffffffffffffffffffffffffffffffffff1681526020019081526020016000206001018190555060026000815480929190600101919050555060043390806001815401808255809150509060018203906000526020600020016000909192909190916101000a81548173ffffffffffffffffffffffffffffffffffffffff021916908373ffffffffffffffffffffffffffffffffffffffff16021790555050346001600082825401925050819055506003546002541015156105d1576105d0610637565b5b50565b6000809054906101000a900473ffffffffffffffffffffffffffffffffffffffff1681565b60048181548110151561060857fe5b906000526020600020016000915054906101000a900473ffffffffffffffffffffffffffffffffffffffff1681565b60006001600a42430181151561064957fe5b0601905061065681610659565b50565b6106616108cc565b600080905060008090505b6004805490508110156107b057600060048281548110151561068a57fe5b9060005260206000200160009054906101000a900473ffffffffffffffffffffffffffffffffffffffff16905084600560008373ffffffffffffffffffffffffffffffffffffffff1673ffffffffffffffffffffffffffffffffffffffff1681526020019081526020016000206001015414156107505780848460058110151561071057fe5b602002019073ffffffffffffffffffffffffffffffffffffffff16908173ffffffffffffffffffffffffffffffffffffffff168152505082806001019350505b600560008273ffffffffffffffffffffffffffffffffffffffff1673ffffffffffffffffffffffffffffffffffffffff1681526020019081526020016000206000808201600090556001820160009055505050808060010191505061066c565b5060006004816107c091906108ef565b50600081111561089c576000816001548115156107d957fe5b04905060008090505b8281101561088d57600084826005811015156107fa57fe5b60200201519050600073ffffffffffffffffffffffffffffffffffffffff168173ffffffffffffffffffffffffffffffffffffffff1614151561087f578073ffffffffffffffffffffffffffffffffffffffff166108fc849081150290604051600060405180830381858888f1935050505015801561087d573d6000803e3d6000fd5b505b5080806001019150506107e2565b506108966108aa565b506108a5565b6108a46108aa565b5b505050565b60006004816108b991906108ef565b5060006001819055506000600281905550565b60a060405190810160405280600590602082028038833980820191505090505090565b81548183558181111561091657818360005260206000209182019101610915919061091b565b5b505050565b61093d91905b80821115610939576000816000905550600101610921565b5090565b9056fea165627a7a72305820760ca0665c8504121fb515f6823300932cac194603ad04e5a460146a0f98c3d70029",
  "source": "pragma solidity ^0.5.0; ///compiler version\r\n\r\ncontract Roulette {\r\n  address public contractOwner;\r\n  uint256 public pool;\r\n  uint256 public numberOfBets;\r\n  uint256 public maxPlayers = 5;\r\n  address[] public players;\r\n\r\n  struct Player {\r\n    uint256 amountBet;\r\n    uint256 numberSelected;\r\n  }\r\n\r\n  mapping (address => Player) public playerInfo;\r\n\r\n  function() external payable {} \r\n\r\n  constructor() public {                // constructor\r\n    contractOwner = msg.sender;\r\n  }\r\n\r\n  function kill() public {              // kill contract\r\n    if(msg.sender == contractOwner) selfdestruct(address(uint160(contractOwner)));\r\n  }\r\n\r\n  function checkPlayerExists(address _playerAddress) public view returns(bool) {        // check if player exists\r\n    for(uint256 i = 0; i < players.length; i++) {\r\n      if(players[i] == _playerAddress) return true;\r\n    }\r\n    return false;\r\n  }\r\n\r\n  function resetData() internal {                                                       // reset data\r\n     players.length = 0; \r\n     pool = 0;\r\n     numberOfBets = 0;\r\n  }\r\n\r\n\r\n\r\n  function givePrize(uint256 _winnerNumber) internal {                                  // give prize to winner\r\n    address[5] memory winnerPlayers; //temporary array created in memory with fixed size\r\n    uint256 count = 0;\r\n    for(uint256 i = 0; i < players.length; i++) {\r\n      address playerAddress = players[i];\r\n      if(playerInfo[playerAddress].numberSelected == _winnerNumber) {\r\n        winnerPlayers[count] = playerAddress;\r\n        count++;\r\n      }\r\n      delete playerInfo[playerAddress];                                             // delete player info   \r\n    }\r\n    players.length = 0; //deletes the players in the array\r\n    if(count > 0){\r\n      uint256 winnerEtherAmount = pool/count;\r\n      for(uint256 i = 0; i < count; i++) {\r\n        address payable payTo = address(uint160(winnerPlayers[i]));\r\n        if(payTo != address(0)) { //checking that address is not empty due to error\r\n          payTo.transfer(winnerEtherAmount);\r\n        }\r\n      }\r\n      resetData();\r\n    }else{\r\n      resetData();\r\n    }\r\n  }\r\n\r\n  function createWinnerNumber() internal {                           // create winner number\r\n    uint256 winnerNumber = (block.number+now)%10 + 1;\r\n    givePrize(uint256(winnerNumber));\r\n  }\r\n\r\n\r\n  //betting function for number from 1 to 10\r\n  function bet(uint256 _numberSelected) public payable {            // bet function\r\n    require(!checkPlayerExists(msg.sender));                        //checks whether msg.sender exists in players array\r\n    require(_numberSelected >= 1 && _numberSelected <= 10);\r\n    playerInfo[msg.sender].amountBet = msg.value;\r\n    playerInfo[msg.sender].numberSelected = _numberSelected;\r\n    numberOfBets++;\r\n    players.push(msg.sender);\r\n    pool += msg.value;\r\n    if (numberOfBets >= maxPlayers) createWinnerNumber();\r\n  }\r\n}",
  "sourcePath": "C:\\Users\\hasan\\Desktop\\Projects\\Decentralized-Systems-and-Applications\\Ethereum Casino\\RouletteProject\\roulette\\contracts\\Roulette.sol",
  "compiler": {
    "name": "solc",
    "version": "0.5.0+commit.1d4f565a.Emscripten.clang"
  },
  "schemaVersion": "3.4.6",
  "updatedAt": "2022-05-06T10:13:21.832Z",
  "networkType": "ethereum",
  "devdoc": {
    "methods": {}
  },
  "userdoc": {
    "methods": {},
    "notice": "compiler version"
  }
}