{
  "contractName": "SlotMachine",
  "abi": [
    {
      "inputs": [],
      "name": "contractBalance",
      "outputs": [
        {
          "internalType": "uint256",
          "name": "",
          "type": "uint256"
        }
      ],
      "stateMutability": "view",
      "type": "function"
    },
    {
      "inputs": [],
      "name": "currentRandom",
      "outputs": [
        {
          "internalType": "uint256",
          "name": "",
          "type": "uint256"
        }
      ],
      "stateMutability": "view",
      "type": "function"
    },
    {
      "inputs": [],
      "name": "start",
      "outputs": [],
      "stateMutability": "payable",
      "type": "function"
    },
    {
      "inputs": [],
      "name": "random",
      "outputs": [
        {
          "internalType": "uint256",
          "name": "",
          "type": "uint256"
        }
      ],
      "stateMutability": "view",
      "type": "function"
    }
  ],
  "bytecode": "0x608060405234801561001057600080fd5b506103c5806100206000396000f3fe60806040526004361061003f5760003560e01c806350b0021c146100445780635ec01e4d1461006f5780638b7afe2e1461009a578063be9a6555146100c5575b600080fd5b34801561005057600080fd5b506100596100cf565b60405161006691906101e8565b60405180910390f35b34801561007b57600080fd5b506100846100d5565b60405161009191906101e8565b60405180910390f35b3480156100a657600080fd5b506100af610120565b6040516100bc91906101e8565b60405180910390f35b6100cd610126565b005b60015481565b60006001606444426040516020016100ee929190610224565b6040516020818303038152906040528051906020012060001c610111919061027f565b61011b91906102df565b905090565b60005481565b60003490506000811161013857600080fd5b60006101426100d5565b90504760008190555080600181905550604381106101cb5760006003836101699190610335565b905080600054101561017b5760005490505b3373ffffffffffffffffffffffffffffffffffffffff166108fc829081150290604051600060405180830381858888f193505050501580156101c1573d6000803e3d6000fd5b5047600081905550505b5050565b6000819050919050565b6101e2816101cf565b82525050565b60006020820190506101fd60008301846101d9565b92915050565b6000819050919050565b61021e610219826101cf565b610203565b82525050565b6000610230828561020d565b602082019150610240828461020d565b6020820191508190509392505050565b7f4e487b7100000000000000000000000000000000000000000000000000000000600052601260045260246000fd5b600061028a826101cf565b9150610295836101cf565b9250826102a5576102a4610250565b5b828206905092915050565b7f4e487b7100000000000000000000000000000000000000000000000000000000600052601160045260246000fd5b60006102ea826101cf565b91506102f5836101cf565b9250827fffffffffffffffffffffffffffffffffffffffffffffffffffffffffffffffff0382111561032a576103296102b0565b5b828201905092915050565b6000610340826101cf565b915061034b836101cf565b9250817fffffffffffffffffffffffffffffffffffffffffffffffffffffffffffffffff0483118215151615610384576103836102b0565b5b82820290509291505056fea264697066735822122047fc1b2e26d3f28993ac81cf18b8d9123aa4d7046746f8dc603eea6f0aa3135464736f6c634300080d0033",
  "immutableReferences": {},
  "source": "pragma solidity ^0.8.13;\r\n\r\ncontract SlotMachine {\r\n    uint256 public contractBalance;\r\n    uint256 public currentRandom;\r\n\r\n    function start() public payable {\r\n        uint256 userBalance = msg.value;\r\n        require(userBalance > 0);\r\n        uint256 randomValue = random();\r\n        contractBalance = address(this).balance;\r\n        currentRandom = randomValue;\r\n        if(randomValue >= 67)\r\n        {    \r\n            uint256 winBalance = userBalance * 3;\r\n            if(contractBalance < winBalance){\r\n                winBalance = contractBalance;\r\n            }\r\n            payable(msg.sender).transfer(winBalance); \r\n            contractBalance = address(this).balance;        \r\n        }\r\n    }\r\n    \r\n    function random() public view returns (uint256) {\r\n        return uint(keccak256(abi.encodePacked(block.difficulty, block.timestamp))) % 100 + 1;\r\n    }\r\n}",
  "sourcePath": "C:\\Users\\hasan\\Desktop\\Projects\\Decentralized-Systems-and-Applications\\Ethereum Casino\\SlotProject\\slot\\contracts\\Slot.sol",
  "compiler": {
    "name": "solc",
    "version": "0.8.13+commit.abaa5c0e.Emscripten.clang"
  },
  "schemaVersion": "3.4.6",
  "updatedAt": "2022-05-07T16:15:35.846Z",
  "devdoc": {
    "kind": "dev",
    "methods": {},
    "version": 1
  },
  "userdoc": {
    "kind": "user",
    "methods": {},
    "version": 1
  }
}